{
  "contractName": "People",
  "abi": [
    {
      "inputs": [],
      "stateMutability": "nonpayable",
      "type": "constructor"
    },
    {
      "anonymous": false,
      "inputs": [
        {
          "components": [
            {
              "internalType": "uint256",
              "name": "id",
              "type": "uint256"
            },
            {
              "internalType": "uint256",
              "name": "dni",
              "type": "uint256"
            },
            {
              "internalType": "string",
              "name": "name",
              "type": "string"
            },
            {
              "internalType": "string",
              "name": "lastName",
              "type": "string"
            },
            {
              "internalType": "string",
              "name": "location",
              "type": "string"
            },
            {
              "internalType": "uint256",
              "name": "gender",
              "type": "uint256"
            },
            {
              "internalType": "uint256",
              "name": "birth",
              "type": "uint256"
            },
            {
              "internalType": "bool",
              "name": "active",
              "type": "bool"
            },
            {
              "internalType": "address",
              "name": "wallet",
              "type": "address"
            }
          ],
          "indexed": false,
          "internalType": "struct People.Person",
          "name": "person",
          "type": "tuple"
        }
      ],
      "name": "PersonCreate",
      "type": "event"
    },
    {
      "inputs": [
        {
          "internalType": "uint256",
          "name": "_dni",
          "type": "uint256"
        },
        {
          "internalType": "string",
          "name": "_name",
          "type": "string"
        },
        {
          "internalType": "string",
          "name": "_lastName",
          "type": "string"
        },
        {
          "internalType": "string",
          "name": "_location",
          "type": "string"
        },
        {
          "internalType": "uint256",
          "name": "_gender",
          "type": "uint256"
        },
        {
          "internalType": "uint256",
          "name": "_birth",
          "type": "uint256"
        }
      ],
      "name": "createPerson",
      "outputs": [],
      "stateMutability": "nonpayable",
      "type": "function"
    },
    {
      "inputs": [
        {
          "internalType": "uint256",
          "name": "_id",
          "type": "uint256"
        },
        {
          "internalType": "uint256",
          "name": "_dni",
          "type": "uint256"
        },
        {
          "internalType": "string",
          "name": "_name",
          "type": "string"
        },
        {
          "internalType": "string",
          "name": "_lastName",
          "type": "string"
        },
        {
          "internalType": "string",
          "name": "_location",
          "type": "string"
        },
        {
          "internalType": "uint256",
          "name": "_gender",
          "type": "uint256"
        },
        {
          "internalType": "uint256",
          "name": "_birth",
          "type": "uint256"
        }
      ],
      "name": "updatePerson",
      "outputs": [],
      "stateMutability": "nonpayable",
      "type": "function"
    },
    {
      "inputs": [
        {
          "internalType": "uint256",
          "name": "_id",
          "type": "uint256"
        }
      ],
      "name": "getPerson",
      "outputs": [
        {
          "components": [
            {
              "internalType": "uint256",
              "name": "id",
              "type": "uint256"
            },
            {
              "internalType": "uint256",
              "name": "dni",
              "type": "uint256"
            },
            {
              "internalType": "string",
              "name": "name",
              "type": "string"
            },
            {
              "internalType": "string",
              "name": "lastName",
              "type": "string"
            },
            {
              "internalType": "string",
              "name": "location",
              "type": "string"
            },
            {
              "internalType": "uint256",
              "name": "gender",
              "type": "uint256"
            },
            {
              "internalType": "uint256",
              "name": "birth",
              "type": "uint256"
            },
            {
              "internalType": "bool",
              "name": "active",
              "type": "bool"
            },
            {
              "internalType": "address",
              "name": "wallet",
              "type": "address"
            }
          ],
          "internalType": "struct People.Person",
          "name": "",
          "type": "tuple"
        }
      ],
      "stateMutability": "view",
      "type": "function",
      "constant": true
    },
    {
      "inputs": [],
      "name": "getId",
      "outputs": [
        {
          "internalType": "uint256",
          "name": "",
          "type": "uint256"
        }
      ],
      "stateMutability": "view",
      "type": "function",
      "constant": true
    },
    {
      "inputs": [
        {
          "internalType": "uint256",
          "name": "_id",
          "type": "uint256"
        }
      ],
      "name": "desactivatePerson",
      "outputs": [],
      "stateMutability": "nonpayable",
      "type": "function"
    }
  ],
  "bytecode": "0x60806040526000805534801561001457600080fd5b5033600160006101000a81548173ffffffffffffffffffffffffffffffffffffffff021916908373ffffffffffffffffffffffffffffffffffffffff1602179055506111fe806100656000396000f3fe608060405234801561001057600080fd5b50600436106100575760003560e01c80631935675b1461005c578063246982c4146100785780635d1ca631146100a8578063b059af26146100c6578063d5c3db30146100e2575b600080fd5b61007660048036038101906100719190610cd9565b6100fe565b005b610092600480360381019061008d9190610dba565b6102df565b60405161009f9190610fad565b60405180910390f35b6100b0610562565b6040516100bd9190610fde565b60405180910390f35b6100e060048036038101906100db9190610dba565b61056b565b005b6100fc60048036038101906100f79190610ff9565b6108f4565b005b6040518061012001604052806000548152602001878152602001868152602001858152602001848152602001838152602001828152602001600115158152602001600160009054906101000a900473ffffffffffffffffffffffffffffffffffffffff1673ffffffffffffffffffffffffffffffffffffffff168152506002600080548152602001908152602001600020600082015181600001556020820151816001015560408201518160020190805190602001906101bf929190610a42565b5060608201518160030190805190602001906101dc929190610a42565b5060808201518160040190805190602001906101f9929190610a42565b5060a0820151816005015560c0820151816006015560e08201518160070160006101000a81548160ff0219169083151502179055506101008201518160070160016101000a81548173ffffffffffffffffffffffffffffffffffffffff021916908373ffffffffffffffffffffffffffffffffffffffff16021790555090505060006102866000546102df565b90507fb9c24f9f6bb6ddf0cfa5925e7a0ce83a689c5a1bba116bed6dbb9a80192f0776816040516102b79190610fad565b60405180910390a16000808154809291906102d19061111e565b919050555050505050505050565b6102e7610ac8565b60006002600084815260200190815260200160002060405180610120016040529081600082015481526020016001820154815260200160028201805461032c90611196565b80601f016020809104026020016040519081016040528092919081815260200182805461035890611196565b80156103a55780601f1061037a576101008083540402835291602001916103a5565b820191906000526020600020905b81548152906001019060200180831161038857829003601f168201915b505050505081526020016003820180546103be90611196565b80601f01602080910402602001604051908101604052809291908181526020018280546103ea90611196565b80156104375780601f1061040c57610100808354040283529160200191610437565b820191906000526020600020905b81548152906001019060200180831161041a57829003601f168201915b5050505050815260200160048201805461045090611196565b80601f016020809104026020016040519081016040528092919081815260200182805461047c90611196565b80156104c95780601f1061049e576101008083540402835291602001916104c9565b820191906000526020600020905b8154815290600101906020018083116104ac57829003601f168201915b5050505050815260200160058201548152602001600682015481526020016007820160009054906101000a900460ff161515151581526020016007820160019054906101000a900473ffffffffffffffffffffffffffffffffffffffff1673ffffffffffffffffffffffffffffffffffffffff1673ffffffffffffffffffffffffffffffffffffffff1681525050905080915050919050565b60008054905090565b6000600260008381526020019081526020016000206040518061012001604052908160008201548152602001600182015481526020016002820180546105b090611196565b80601f01602080910402602001604051908101604052809291908181526020018280546105dc90611196565b80156106295780601f106105fe57610100808354040283529160200191610629565b820191906000526020600020905b81548152906001019060200180831161060c57829003601f168201915b5050505050815260200160038201805461064290611196565b80601f016020809104026020016040519081016040528092919081815260200182805461066e90611196565b80156106bb5780601f10610690576101008083540402835291602001916106bb565b820191906000526020600020905b81548152906001019060200180831161069e57829003601f168201915b505050505081526020016004820180546106d490611196565b80601f016020809104026020016040519081016040528092919081815260200182805461070090611196565b801561074d5780601f106107225761010080835404028352916020019161074d565b820191906000526020600020905b81548152906001019060200180831161073057829003601f168201915b5050505050815260200160058201548152602001600682015481526020016007820160009054906101000a900460ff161515151581526020016007820160019054906101000a900473ffffffffffffffffffffffffffffffffffffffff1673ffffffffffffffffffffffffffffffffffffffff1673ffffffffffffffffffffffffffffffffffffffff168152505090508060e00151158160e0019015159081151581525050806002600084815260200190815260200160002060008201518160000155602082015181600101556040820151816002019080519060200190610836929190610a42565b506060820151816003019080519060200190610853929190610a42565b506080820151816004019080519060200190610870929190610a42565b5060a0820151816005015560c0820151816006015560e08201518160070160006101000a81548160ff0219169083151502179055506101008201518160070160016101000a81548173ffffffffffffffffffffffffffffffffffffffff021916908373ffffffffffffffffffffffffffffffffffffffff1602179055509050505050565b60006108ff886102df565b905086816020018181525050858160400181905250848160600181905250838160800181905250828160a0018181525050818160c001818152505080600260008a81526020019081526020016000206000820151816000015560208201518160010155604082015181600201908051906020019061097e929190610a42565b50606082015181600301908051906020019061099b929190610a42565b5060808201518160040190805190602001906109b8929190610a42565b5060a0820151816005015560c0820151816006015560e08201518160070160006101000a81548160ff0219169083151502179055506101008201518160070160016101000a81548173ffffffffffffffffffffffffffffffffffffffff021916908373ffffffffffffffffffffffffffffffffffffffff1602179055509050505050505050505050565b828054610a4e90611196565b90600052602060002090601f016020900481019282610a705760008555610ab7565b82601f10610a8957805160ff1916838001178555610ab7565b82800160010185558215610ab7579182015b82811115610ab6578251825591602001919060010190610a9b565b5b509050610ac49190610b2c565b5090565b60405180610120016040528060008152602001600081526020016060815260200160608152602001606081526020016000815260200160008152602001600015158152602001600073ffffffffffffffffffffffffffffffffffffffff1681525090565b5b80821115610b45576000816000905550600101610b2d565b5090565b6000604051905090565b600080fd5b600080fd5b6000819050919050565b610b7081610b5d565b8114610b7b57600080fd5b50565b600081359050610b8d81610b67565b92915050565b600080fd5b600080fd5b6000601f19601f8301169050919050565b7f4e487b7100000000000000000000000000000000000000000000000000000000600052604160045260246000fd5b610be682610b9d565b810181811067ffffffffffffffff82111715610c0557610c04610bae565b5b80604052505050565b6000610c18610b49565b9050610c248282610bdd565b919050565b600067ffffffffffffffff821115610c4457610c43610bae565b5b610c4d82610b9d565b9050602081019050919050565b82818337600083830152505050565b6000610c7c610c7784610c29565b610c0e565b905082815260208101848484011115610c9857610c97610b98565b5b610ca3848285610c5a565b509392505050565b600082601f830112610cc057610cbf610b93565b5b8135610cd0848260208601610c69565b91505092915050565b60008060008060008060c08789031215610cf657610cf5610b53565b5b6000610d0489828a01610b7e565b965050602087013567ffffffffffffffff811115610d2557610d24610b58565b5b610d3189828a01610cab565b955050604087013567ffffffffffffffff811115610d5257610d51610b58565b5b610d5e89828a01610cab565b945050606087013567ffffffffffffffff811115610d7f57610d7e610b58565b5b610d8b89828a01610cab565b9350506080610d9c89828a01610b7e565b92505060a0610dad89828a01610b7e565b9150509295509295509295565b600060208284031215610dd057610dcf610b53565b5b6000610dde84828501610b7e565b91505092915050565b610df081610b5d565b82525050565b600081519050919050565b600082825260208201905092915050565b60005b83811015610e30578082015181840152602081019050610e15565b83811115610e3f576000848401525b50505050565b6000610e5082610df6565b610e5a8185610e01565b9350610e6a818560208601610e12565b610e7381610b9d565b840191505092915050565b60008115159050919050565b610e9381610e7e565b82525050565b600073ffffffffffffffffffffffffffffffffffffffff82169050919050565b6000610ec482610e99565b9050919050565b610ed481610eb9565b82525050565b600061012083016000830151610ef36000860182610de7565b506020830151610f066020860182610de7565b5060408301518482036040860152610f1e8282610e45565b91505060608301518482036060860152610f388282610e45565b91505060808301518482036080860152610f528282610e45565b91505060a0830151610f6760a0860182610de7565b5060c0830151610f7a60c0860182610de7565b5060e0830151610f8d60e0860182610e8a565b50610100830151610fa2610100860182610ecb565b508091505092915050565b60006020820190508181036000830152610fc78184610eda565b905092915050565b610fd881610b5d565b82525050565b6000602082019050610ff36000830184610fcf565b92915050565b600080600080600080600060e0888a03121561101857611017610b53565b5b60006110268a828b01610b7e565b97505060206110378a828b01610b7e565b965050604088013567ffffffffffffffff81111561105857611057610b58565b5b6110648a828b01610cab565b955050606088013567ffffffffffffffff81111561108557611084610b58565b5b6110918a828b01610cab565b945050608088013567ffffffffffffffff8111156110b2576110b1610b58565b5b6110be8a828b01610cab565b93505060a06110cf8a828b01610b7e565b92505060c06110e08a828b01610b7e565b91505092959891949750929550565b7f4e487b7100000000000000000000000000000000000000000000000000000000600052601160045260246000fd5b600061112982610b5d565b91507fffffffffffffffffffffffffffffffffffffffffffffffffffffffffffffffff82141561115c5761115b6110ef565b5b600182019050919050565b7f4e487b7100000000000000000000000000000000000000000000000000000000600052602260045260246000fd5b600060028204905060018216806111ae57607f821691505b602082108114156111c2576111c1611167565b5b5091905056fea2646970667358221220ffab129c471d96d8bb317d3ee749e7a84d3cf65490f6b7df1d204f5d4c8f36d164736f6c634300080a0033",
  "immutableReferences": {},
  "source": "// SPDX-License-Identifier: MIT\r\npragma solidity >=0.4.22 <0.9.0;\r\n\r\ncontract People {\r\n\r\n    uint256 private id = 0;\r\n    address private owner;\r\n\r\n    constructor(){\r\n        owner = msg.sender;\r\n    }\r\n\r\n    struct Person {\r\n        uint256 id;\r\n        uint256 dni;\r\n        string name;\r\n        string lastName;\r\n        string location;\r\n        uint256 gender;\r\n        uint256 birth;\r\n        bool active;\r\n        address wallet;\r\n     }\r\n\r\n    event PersonCreate(\r\n        Person person\r\n    );\r\n\r\n    mapping(uint256 => Person) private people;\r\n\r\n    function createPerson(uint256 _dni, string memory _name, string memory _lastName, string memory _location, uint256 _gender, uint256 _birth) public {\r\n\r\n        people[id] = (Person(id,_dni,_name,_lastName, _location, _gender, _birth, true, owner));\r\n        Person memory person = getPerson(id);\r\n        emit PersonCreate(person);\r\n        id++;\r\n\r\n    }\r\n\r\n    //probar el require si al modificar con distintos usuarios salta (cuando este el front)\r\n    function updatePerson(uint256 _id, uint256 _dni, string memory _name, string memory _lastName, string memory _location, uint256 _gender, uint256 _birth) public {\r\n\r\n        //require(owner == msg.sender); \r\n        Person memory person = getPerson(_id);\r\n        person.dni = _dni;\r\n        person.name = _name;\r\n        person.lastName = _lastName;\r\n        person.location = _location;\r\n        person.gender = _gender; \r\n        person.birth = _birth; \r\n        //person.wallet = owner; \r\n        people[_id] = person;\r\n\r\n    }\r\n\r\n    function getPerson(uint256 _id) public view returns (Person memory){\r\n\r\n        Person memory person = people[_id];\r\n        return person;\r\n\r\n    }\r\n\r\n    function getId() public view returns (uint256){\r\n\r\n        return id;\r\n\r\n    }\r\n\r\n    function desactivatePerson(uint256 _id) public {\r\n\r\n        Person memory person = people[_id];\r\n        person.active = !person.active;\r\n        people[_id] = person;\r\n\r\n    }\r\n\r\n}",
  "sourcePath": "D:\\Projects\\people-base\\contracts\\People.sol",
  "compiler": {
    "name": "solc",
    "version": "0.8.10+commit.fc410830.Emscripten.clang"
  },
  "schemaVersion": "3.4.4",
  "updatedAt": "2022-01-14T21:58:11.150Z",
  "networkType": "ethereum",
  "devdoc": {
    "kind": "dev",
    "methods": {},
    "version": 1
  },
  "userdoc": {
    "kind": "user",
    "methods": {},
    "version": 1
  }
}